:100000000C943C070C946D070C946D070C946D07D1
:100010000C946D070C946D070C946D070C946D0790
:100020000C946D070C946D070C946D070C946D0780
:100030000C946D070C946D070C946D070C946D0770
:100040000C946D070C946D070C946D070C946D0760
:100050000C946D070C946D070C946D070C94951D12
:100060000C946D070C94BD0F0C94E50E0C946D0769
:100070000C946D070C946D070C946D070C946D0730
:100080000C946D070C946D070C946D070C946D0720
:100090000C948A0F0C94A60E0C946D070C946D07AB
:1000A0000C946D070C946D070C946D070C946D0700
:1000B0000C946D070C946D070C946D070C946D07F0
:1000C0000C946D070C946D070C946D070C94570FEE
:1000D0000C94670E0C946D070C94240F0C94280E4E
:1000E0000C946D07F717FA17ED17F1173118FE1773
:1000F000021808180C18101816181A181E1831189B
:10010000241828182C180C94F1170C94ED170C9443
:10011000A02B0C94FA170C941E180C940C180C9429
:100120001A180C94861F0C9469090C94F7170C94F8
:100130004D090C9424180C946F070C9402180C941D
:1001400089170C940B080C9482070C9416180C94C5
:1001500008180C945D090C944C090C943E110C94F5
:10016000E00A0C9431180C947C090C94080B0C9444
:100170003F140C9428180C949A0A0C94AC070C9415
:100180002C180C946F0A0C94B60A0C9475090C94F4
:100190007A0A0C94FE170C942D0A0C9410180C94E7
:1001A000922A0C94C51200002200250028002B0082
:1001B0002E003100340002010000050108010B018E
:1001C00000002100240027002A002D003000330009
:1001D00001010000040107010A0111007F962900B6
:1001E00001007F9628003A0155C0021010C101415C
:1001F000C50400228040360168B00100B102B01190
:10020000B40102B60302023BB701C63A0155F70436
:10021000A9512C82C0020D0DC1024300C20100C5CC
:100220000400480048B40100B60302023BE00F0F8F
:10023000211C0B0E08499838091103141000E10F16
:100240000F2F2B0C0E06477637071104231E00B024
:100250000100B30402000000B40100D003074218FB
:10026000D103000710D2020102D3020102D402011D
:1002700002C005123B000211C103101088C5010322
:10028000C60102C80C003236450616377577540C85
:1002900000CC0100F603010100CF03008130ED0422
:1002A00064031281E803851078CB05392C003402F1
:1002B000F70120EA020000B00100B102001BB40106
:1002C00000C00121C10111C5023F3CC701B5360183
:1002D00048F20100260101E00F0F26240B0E0954FD
:1002E000A8460C17090F0700E10F00191B0410079F
:1002F0002A473903060630380F360100B80101C01D
:10030000010EB00100C10410100202C00600350049
:10031000000102C50104D2020104CA0100EA018001
:10032000B903FF83577F967F96B60125C0065050CC
:10033000013C1E08B4070240002A2A0D787F01F212
:100340000B1616030808080810041616FD03110200
:1003500035B2050C0C003333B70135BB012BC0019E
:1003600004C20201FFC30111C40120C6010FD00263
:10037000A4A1E00ED000050E150D37434709151254
:100380001619E10ED000050D0C062D44400E1C1868
:1003900016193A01557F0AB00103E2013FC001225C
:1003A000E20100B00100C0010AB00100000000003D
:1003B000000000000000000000000000FFFF0F0030
:1003C00000040062080008080003000C01030B5A37
:1003D0000203060903031710040300230503001793
:1003E000060309630703090C08030C1009033222F2
:1003F000100016001100010112000000130001009E
:1004000000013003010137020301000D8002006189
:100410000201B0C1FFFF3200010000010200000133
:1004200003003010090001000C0000009000008063
:100430000F000000100200001102EF001202000085
:1004400013028F01000500000105000002055F0096
:100450000104010004040000FFFF32000700000156
:10046000FFFF320000020000010200000000000057
:10047000000000000000000000000100A4000100D6
:10048000FFFF0A006000002708000808300014027F
:1004900031001537320004063300160E34001122E5
:1004A000350000153600078537000714380003149F
:1004B00039002000900015001000100411003702D0
:1004C000290046002A0046000700000012008901AA
:1004D00013000011FFFF96001200B9010100000196
:1004E0000200000203003010090001000A000000B1
:1004F0000D0000000E003000610001006A000000E5
:10050000800000008100000082005F009200000176
:1005100093000107FFFF500007000001E500F0789D
:10052000010000010200000203003010040000007E
:100530000500000008000702090000000A00000092
:100540000C0000000D0000000F0000001000000073
:100550001100070012000000130000000700010056
:10056000FFFFC8001000901611002702FFFF3200A5
:1005700012000D00FFFF32001300001229000A00D4
:100580002B000D00FFFF32002000000021000000C2
:10059000300000003100040432000300350005047F
:1005A000360008083700070438000303390007073E
:1005B0003C0004053D0008086000002761000100C0
:1005C0006A0000008000000081000000820000003E
:1005D00083000000840000008500000090001000EF
:1005E0009200000007003301E500008000000100D8
:1005F00001000001020000070300301004000000A9
:1006000008000202090000000A0000000C000000BF
:100610000D0000000F000000100000001100070096
:100620001200000013000000FFFF32001000B0179E
:1006300011000700FFFF0A0012003A01FFFF0A0045
:100640001300001A29000C00FFFF0A003000000010
:1006500031000505320004003500060036000707AA
:100660003700050138000200390007073C00040785
:100670003D000708600000A7610001006A0000005B
:100680002100000020000000800000008100000028
:10069000820000008300000084000000850000004C
:1006A00090001000920000009300030095001001DC
:1006B000970000009800000007007301FFFF320060
:1006C000FF000100F300080000000100010000012C
:1006D00002000007030030100800020309000000B8
:1006E00010000000110007001200000013000000BD
:1006F000FFFF32001000B014FFFF0A0011000700D6
:10070000FFFF0A0012008E001300000C29001500E4
:10071000FFFF0A0030000000310007013200000036
:1007200035000302360002043700000038000702DB
:10073000390000003C0003023D000304600000A7F4
:10074000610001009000290007003301FFFF320023
:10075000150030009A00100011002000100028340D
:100760001200020013003810FFFF280012001200D0
:10077000FFFF28001000203413004530FFFF460023
:10078000300000003100020432000703330004038C
:100790003400040035000104360007073700050364
:1007A00038001006390010060100000102000003A5
:1007B00003003010080008080A0008006000002745
:1007C0006100010090003E019200000193000001D1
:1007D000A0000030A3001000070001000700210066
:1007E00007002300070033000700330111001A003F
:1007F0001200213113006C0014004942100000085F
:10080000FFFF0A0011001A01FFFF0A0011001A037E
:10081000FFFF0A0011001A07FFFF0A0011001A0F5C
:10082000FFFF0A0011003A0FFFFF1E000100280120
:10083000020000010300301007001210080003033B
:100840000B0000110C0000000F0001181500200023
:10085000500001015100030652000804530000003B
:100860005400050655000604560003035700030311
:10087000580010005900001007001200FFFF280068
:10088000070013000700170000000000003E5B4F48
:100890005B3E3E6B4F6B3E1C3E7C3E1C183C7E3CE0
:1008A000181C577D571C1C5E7F5E1C00183C1800EE
:1008B000FFE7C3E7FF0018241800FFE7DBE7FF307E
:1008C000483A060E2629792926407F050507407FEC
:1008D00005253F5A3CE73C5A7F3E1C1C08081C1C5F
:1008E0003E7F14227F22145F5F005F5F06097F0155
:1008F0007F006689956A606060606094A2FFA29440
:1009000008047E040810207E201008082A1C08080D
:100910001C2A08081E101010100C1E0C1E0C30385B
:100920003E3830060E3E0E06000000000000005F5C
:1009300000000007000700147F147F14242A7F2A78
:10094000122313086462364956205000080703003A
:10095000001C2241000041221C002A1C7F1C2A0886
:10096000083E0808008070300008080808080000E9
:1009700060600020100804023E5149453E00427F5D
:10098000400072494949462141494D331814127FAC
:100990001027454545393C4A49493141211109074C
:1009A0003649494936464949291E000014000000CD
:1009B000403400000008142241141414141400419F
:1009C00022140802015909063E415D594E7C12115C
:1009D000127C7F494949363E414141227F41414194
:1009E0003E7F494949417F090909013E414151730F
:1009F0007F0808087F00417F41002040413F017F80
:100A0000081422417F404040407F021C027F7F0447
:100A100008107F3E4141413E7F090909063E415190
:100A2000215E7F09192946264949493203017F0180
:100A3000033F4040403F1F2040201F3F4038403F81
:100A4000631408146303047804036159494D430097
:100A50007F4141410204081020004141417F0402CE
:100A60000102044040404040000307080020545465
:100A700078407F2844443838444444283844442843
:100A80007F385454541800087E090218A4A49C7896
:100A90007F0804047800447D40002040403D007FF2
:100AA0001028440000417F40007C047804787C08D2
:100AB0000404783844444438FC18242418182424A6
:100AC00018FC7C08040408485454542404043F448B
:100AD000243C4040207C1C2040201C3C4030403CBA
:100AE00044281028444C9090907C4464544C44001A
:100AF000083641000000770000004136080002017E
:100B00000204023C2623263C1EA1A161123A404069
:100B1000207A3854545559215555794122545478E6
:100B200042215554784020545579400C1E5272127F
:100B30003955555559395454545939555454580008
:100B400000457C410002457D420001457C407D120C
:100B500011127DF0282528F07C545545002054546E
:100B60007C547C0A097F4932494949323A44444419
:100B70003A324A4848303A4141217A3A4240207854
:100B8000009DA0A07D3D4242423D3D4040403D3C55
:100B900024FF2424487E4943662B2FFC2F2BFF097A
:100BA00029F620C0887E090320545479410000446E
:100BB0007D413048484A32384040227A007A0A0A59
:100BC000727D0D19317D2629292F282629292926CC
:100BD00030484D4020380808080808080808382F11
:100BE00010C8ACBA2F102834FA00007B000008149B
:100BF0002A142222142A14085500550055AA55AA71
:100C000055AAFF55FF55FF000000FF00101010FF10
:100C100000141414FF001010FF00FF1010F010F06B
:100C2000141414FC001414F700FF0000FF00FF145C
:100C300014F404FC141417101F10101F101F1414A8
:100C4000141F00101010F0000000001F10101010F2
:100C50001F10101010F010000000FF1010101010E6
:100C600010101010FF10000000FF140000FF00FF24
:100C700000001F10170000FC04F4141417101714C0
:100C800014F404F40000FF00F714141414141414E2
:100C9000F700F7141414171410101F101F14141455
:100CA000F4141010F010F000001F101F0000001FBF
:100CB00014000000FC140000F010F01010FF10FFF2
:100CC000141414FF141010101F00000000F010FF87
:100CD000FFFFFFFFF0F0F0F0F0FFFFFF000000006B
:100CE00000FFFF0F0F0F0F0F3844443844FC4A4AEF
:100CF0004A347E02020606027E027E0263554941A4
:100D0000633844443C04407E201E2006027E0202DA
:100D100099A5E7A5991C2A492A1C4C7201724C30EE
:100D20004A4D4D303048784830BC625A463D3E49C5
:100D30004949007E0101017E2A2A2A2A2A44445F69
:100D4000444440514A444040444A51400000FF015D
:100D500003E080FF000008086B6B0836123624366B
:100D6000060F090F060000181800000010100030D0
:100D700040FF0101001F01011E00191D1712003C58
:100D80003C3C3C0000000000000020002300260046
:100D900029002C002F003200000100000301060191
:100DA00009010505050507050808080802020202F1
:100DB0000A0A0808040404040101010101010101F7
:100DC0000303030303030303040707070C0C0C0CC2
:100DD0000C0C0C0C020202020606060606060606AB
:100DE0000B0B0B0B0B0B0B0B010210202008081038
:100DF000204010204080020102010804020101028B
:100E00000408102040808040201008040201800463
:100E100002018040201008040201080402010102BE
:100E200004081020408001020408102040800000C7
:100E3000090A02080B0C0D0706030401000000005C
:100E400000000000000000000000000000000000A2
:100E50000000000000000000000011100F00000062
:100E60000000000000000000000000000000000082
:100E700000000000922AA02B11241FBECFEFD1E268
:100E8000DEBFCDBF00E00CBF12E0A0E0B2E0ECEBB3
:100E9000FCE500E00BBF02C007900D92AC3DB1072E
:100EA000D9F725E0ACEDB2E001C01D92A93EB20732
:100EB000E1F717E0CBE3D7E000E006C02197010996
:100EC000802FFE010E94442ECA33D10780E008071C
:100ED000A9F70E94A31F0C94D52B0C940000EF924D
:100EE000FF920F931F93DC01ED91FC91048CF58D23
:100EF000E02D780101E010E019951F910F91FF900E
:100F0000EF900895EF92FF920F931F93DC01ED9104
:100F1000FC91048CF58DE02D7801890121E030E011
:100F200019951F910F91FF90EF9008950895FC017E
:100F30006370658B8481958126813781613039F0BA
:100F4000633029F09187808733872287089531871E
:100F500020879387828708956F927F928F929F92C6
:100F6000AF92BF92CF92DF92EF92FF920F931F93B7
:100F7000CF93DF93EC014B015A0169013801E881FD
:100F8000F9810680F781E02D1995E881F9810684C1
:100F9000F785E02D87019601A501B401CE011995D1
:100FA000A501460D571D41505109E881F98106847C
:100FB000F785E02D9601B401CE011995E881F981FC
:100FC0000484F585E02D9301A501B401CE011995A6
:100FD000C80CD91CB60161507109E881F9810484FB
:100FE000F585E02D9301A501CE011995E881F981E0
:100FF0000288F389E02DCE01DF91CF911F910F91EF
:10100000FF90EF90DF90CF90BF90AF909F908F9028
:101010007F906F9019948F929F92AF92BF92CF92D0
:10102000DF92EF92FF920F931F93CF93DF934C01C8
:101030006B015A01E901DC01ED91FC916217730724
:1010400081F40417150724F48B2D5801042F182F51
:101050000A191B0998012F5F3F4F008CF18DE02D7D
:1010600012C04017510709F52617370724F48D2DB4
:101070006901C62FD82F9E012C193D092F5F3F4FC4
:10108000028CF38DE02D8701A501B601C4011995ED
:10109000DF91CF911F910F91FF90EF90DF90CF9054
:1010A000BF90AF909F908F9008950680F781E02DBC
:1010B0001995D401ED91FC910088F189E02D9E01F4
:1010C000A501B601C4011995D401ED91FC910288E6
:1010D000F389E02DC401DF91CF911F910F91FF9013
:1010E000EF90DF90CF90BF90AF909F908F9019942A
:1010F000EF92FF920F931F93DC011A960D911C91B2
:101100001B9718962D913C911997ED91FC91048CA9
:10111000F58DE02D7B0140E050E060E070E0199536
:101120001F910F91FF90EF9008954F925F926F92F1
:101130007F928F929F92AF92BF92CF92DF92EF9267
:10114000FF920F931F93CF93DF936C012B015A01F2
:1011500039014801DC01ED91FC910680F781E02D19
:101160001995E201640C751CD601ED91FC91C61530
:10117000D7055CF40484F585E02D87019401A50171
:10118000BE01C60119952196EFCF0288F389E02DA3
:10119000C601DF91CF911F910F91FF90EF90DF90EB
:1011A000CF90BF90AF909F908F907F906F905F9007
:1011B0004F9019948F929F92AF92BF92CF92DF92ED
:1011C000EF92FF920F931F93CF93DF93EC015B019C
:1011D0004A016901E881F9810680F781E02D1995BE
:1011E00095012C0D3D1D21503109E881F9810088C0
:1011F000F189E02D78018401A401B501CE01199592
:10120000E881F9810288F389E02DCE01DF91CF9149
:101210001F910F91FF90EF90DF90CF90BF90AF9014
:101220009F908F9019948F929F92AF92BF92CF927E
:10123000DF92EF92FF920F931F93CF93DF93EC0116
:101240005B014A0169017801E881F9810680F78133
:10125000E02D1995C80CD91C860101501109E881AF
:10126000F9810088F189E02D9501A401B501CE0135
:101270001995E881F9810288F389E02DCE01DF918B
:10128000CF911F910F91FF90EF90DF90CF90BF9083
:10129000AF909F908F9019940895EF92FF920F93C3
:1012A0001F93DC01ED91FC91048CF58DE02D1995D7
:1012B0001F910F91FF90EF9008950F931F93DC0102
:1012C000ED91FC91028CF38DE02D19951F910F91FA
:1012D00008950F931F93DC01ED91FC91008CF18D2B
:1012E000E02D19951F910F910895DC01ED91FC916E
:1012F0000480F581E02D19942F923F924F925F92D6
:101300006F927F928F929F92AF92BF92CF92DF9215
:10131000EF92FF920F931F93CF93DF9300D000D0F3
:10132000CDB7DEB72C017E836D836A015901C801F8
:10133000FC82EB824801841A950A97FE03C09194BF
:101340008194910835012D813E81621A730A77FEDE
:1013500003C0719461947108681479045CF43A2DA7
:101360002B2D5C01832F922F3D812E81DE82CD8239
:10137000C32ED22EAD81BE81AA16BB065CF43C2DD5
:101380002D2D6C01832F922F3D812E81BE82AD8247
:10139000A32EB22E85012D813E81021B130B1C0151
:1013A0002C183D0837FE03C0319421943108780190
:1013B00017FF03C03FEFE31AF30AF594E794C8164A
:1013C000D9062CF08FEF9FEF9A83898304C0A1E0A8
:1013D000B0E0BA83A9832D813E81A216B30624F121
:1013E000D201ED91FC910084F185E02D2B813C81AF
:1013F0006814790424F44D815E81B60103C0A6010E
:101400006D817E81C2011995E218F308F7FE06C0CE
:1014100029813A81C20ED31EE00EF11E8D819E817C
:1014200001969E838D83D7CF26960FB6F894DEBFA4
:101430000FBECDBFDF91CF911F910F91FF90EF9025
:10144000DF90CF90BF90AF909F908F907F906F90E4
:101450005F904F903F902F9008950F931F93CF93DD
:10146000DF93FC01A685B7858D01005C1F4FE80165
:101470008881998101968F739927AD014E5B5F4FEB
:10148000EA012881398128173907D1F3E801288139
:101490003981A20FB31F6C93A685B785A05CBF4F9F
:1014A00011969C938E93A689B7892C9181E090E048
:1014B000078C02C0880F991F0A94E2F7822B8C9345
:1014C00081E081A30488F589E02D80818064808398
:1014D00081E090E0DF91CF911F910F910895FC0181
:1014E00081A1882329F0A489B5898C9186FFFBCF3F
:1014F00011A20895FC01A485B585FD01E05CFF4FB4
:10150000208131813296808191812817390779F0C5
:1015100080819181A80FB91F8C91208131812F5F2B
:101520003F4F2F7333273183208390E008958FEF4F
:101530009FEF0895DC011C96ED91FC911D97DF0152
:10154000A05CBF4F2D913C91119712968D919C916B
:1015500011972817390739F08D919C91E80FF91FE1
:10156000808190E008958FEF9FEF0895FC0124851E
:101570003585F901E05CFF4F8081918132962081B1
:101580003181821B930B8F7399270895FB01E05CD7
:10159000FF4F20813181DB01AE5BBF4F4D915C91EC
:1015A0002F5F3F4F2F7333274217530741F040817E
:1015B0005181DB01A40FB51F8C93318320830895E3
:1015C000CF92DF92EF92FF920F931F93CF93DF930F
:1015D0006C01EB017B01E40EF51E00E010E0CE157E
:1015E000DF0561F06991D601ED91FC910190F081E8
:1015F000E02DC6011995080F191FF1CFC801DF9121
:10160000CF911F910F91FF90EF90DF90CF900895B1
:10161000AF92BF92CF92EF92FF920F931F93CF930F
:10162000DF93EC01262F888D998D009709F040C03B
:101630006A3059F41D861C862C898E859F8538E07A
:10164000239F800D911D112441C06D3009F4AAC063
:101650008E898823C1F03C898C859D8546E0349F26
:10166000800D911D112448855985481759075CF450
:101670001D861C868E859F8548E0349F800D911DB8
:1016800011249F878E87EA88FB88088919894E85EF
:101690005F856C857D85CC88CE010E948B1A2C8954
:1016A0008C859D8536E0239F800D911D112442C0BD
:1016B0006A3079F41D861C862C89FC013696E491EB
:1016C0008E859F852E9F800D911D11249F878E876B
:1016D00069C06D3009F466C0FC013496349163171B
:1016E00008F460C03196E491E61708F45BC0FC0191
:1016F000329665917491422F50E0431B510937E0B7
:10170000349F5001359FB00C1124A60EB71EF50171
:10171000329634913196E491332311F0E1110DC0EA
:10172000F5013496E4912C898C859D85E29F800D8E
:10173000911D11249D878C8735C0F5013596449104
:101740005E89552311F16C89E32FF0E0E40FF11D60
:1017500047FDFA956E9FD0016F9FB00D11244C8507
:101760005D854A0F5B1FE885F985E417F5076CF482
:101770001D861C86FC013696E4918E859F856E9FA2
:10178000800D911D11249F878E87EA88FB88088928
:1017900019894E855F856C857D85CC88CE010E9438
:1017A0008B1ABECF81E090E0DF91CF911F910F9116
:1017B000FF90EF90CF90BF90AF9008958B988A984C
:1017C00020910201277820930201A5982EB1277C51
:1017D0002EB970910201292F3327F901E370FF27F9
:1017E000A5E0EE0FFF1FAA95E1F7E72BE0930201BA
:1017F0007EB1F901EC70FF27EE0FFF1FEE0FFF1F08
:10180000E72BEEB974B3F901E071FF27EE0FFF1F6C
:10181000E72BE4BB7EB1F901E072FF27F595E79570
:10182000F595E795E72BEEB970910201207C3327FF
:10183000E3E035952795EA95E1F7272B2093020100
:101840008998899A20910201277820930201A5980E
:101850002EB1277C2EB9709102019C012370332791
:10186000F5E0220F331FFA95E1F7272B20930201B1
:101870007EB19C012C703327220F331F220F331FA0
:10188000272B2EB974B39C0120713327220F331FED
:10189000272B24BB7EB19C012072332735952795D9
:1018A00035952795272B2EB9709102019C01207C3C
:1018B0003327F3E035952795FA95E1F7272B209309
:1018C00002018998899A8A9AFA01A091DD027FEF34
:1018D000760F16160CF0C7C02191309102013778AF
:1018E00030930201A5983EB1377C3EB96091020168
:1018F000322F3370B0E23B9FA0011124462B40935E
:1019000002016EB1322F3C70B4E03B9FA001112464
:10191000462B4EB944B3322F3071330F342B34BBC6
:101920006EB1322F3072432F50E055954795559543
:101930004795462B4EB930910201207C269526957D
:101940002695232B209302018998899A711102C050
:10195000672FBDCFAA23E1F301968A982091020157
:10196000277820930201A5982EB1277C2EB960918B
:101970000201292F3327A90143705527B5E0440FF1
:10198000551FBA95E1F7462B409302016EB1A901AC
:101990004C705527440F551F440F551F462B4EB909
:1019A00064B3A90140715527440F551F462B44BB12
:1019B0006EB1A901407255275595479555954795A4
:1019C000462B4EB940910201207C332753E03595D8
:1019D00027955A95E1F7242B209302018998899A3B
:1019E00020910201277820930201A5982EB1277C2F
:1019F0002EB9409102019C012370332765E0220F2C
:101A0000331F6A95E1F7242B209302014EB19C010C
:101A10002C703327220F331F220F331F242B2EB994
:101A200044B39C0120713327220F331F242B24BB86
:101A30004EB19C0120723327359527953595279512
:101A4000242B2EB9409102019C01207C3327B3E066
:101A500035952795BA95E1F7242B209302018998B3
:101A6000899A8A9A75CF8B9A08958B988A98E2E022
:101A7000F1E0208127782083A5982EB1277C2EB90C
:101A8000A081292F3327A90143705527B5E0440FC2
:101A9000551FBA95E1F74A2B4083AEB1A9014C70AE
:101AA0005527440F551F440F551F4A2B4EB9A4B359
:101AB000A90140715527440F551F4A2B44BBAEB1B5
:101AC000A9014072552755954795559547954A2B3D
:101AD0004EB94081207C332753E0359527955A95A0
:101AE000E1F7242B20838998899A20812778208305
:101AF000A5982EB1277C2EB940819C0123703327F5
:101B0000A5E0220F331FAA95E1F7242B20834EB1C5
:101B10009C012C703327220F331F220F331F242BDD
:101B20002EB944B39C0120713327220F331F242B7D
:101B300024BB4EB19C0120723327359527953595EE
:101B40002795242B2EB92081807C9927B3E0959589
:101B50008795BA95E1F7822B80838998899A8A9A2A
:101B6000808187788083A5988EB1877C8EB94081EB
:101B7000872F99279C012370332755E0220F331FAD
:101B80005A95E1F7242B20834EB19C012C7033270A
:101B9000220F331F220F331F242B2EB944B39C0175
:101BA00020713327220F331F242B24BB4EB19C01FD
:101BB000207233273595279535952795242B2EB9F7
:101BC0002081807C9927A3E095958795AA95E1F7D8
:101BD000822B80838998899A808187788083A598D1
:101BE0008EB1877C8EB92081CB0183709927B5E0B7
:101BF000880F991FBA95E1F7822B80832EB1CB0114
:101C00008C709927880F991F880F991F822B8EB986
:101C100024B3CB0180719927880F991F822B84BB35
:101C20002EB1CB01807299279595879595958795CB
:101C3000822B8EB98081607C7727A3E075956795AC
:101C4000AA95E1F7682B60838998899A8B9A089501
:101C50001F920F920FB60F9211240BB60F922F9373
:101C60003F938F939F93EF93FF9320911E033091A7
:101C70001F0380912003909121032817390731F425
:101C8000809131018F7D8093310114C0E091200358
:101C9000F0912103E252FD4F208180912003909129
:101CA000210301968F73992790932103809320033A
:101CB00020933601FF91EF919F918F913F912F914A
:101CC0000F900BBE0F900FBE0F901F9018951F9294
:101CD0000F920FB60F9211240BB60F922F933F93D2
:101CE0008F939F93EF93FF932091A6033091A703C7
:101CF0008091A8039091A9032817390731F48091A6
:101D0000D1008F7D8093D10014C0E091A803F091A1
:101D1000A903EA59FC4F20818091A8039091A9035F
:101D200001968F7399279093A9038093A80320931A
:101D3000D600FF91EF919F918F913F912F910F903E
:101D40000BBE0F900FBE0F901F9018951F920F9211
:101D50000FB60F9211240BB60F922F933F938F93D0
:101D60009F93EF93FF9320912E0430912F04809145
:101D70003004909131042817390731F48091C9005B
:101D80008F7D8093C90014C0E0913004F09131043C
:101D9000E251FC4F208180913004909131040196F2
:101DA0008F73992790933104809330042093CE0051
:101DB000FF91EF919F918F913F912F910F900BBECB
:101DC0000F900FBE0F901F9018951F920F920FB695
:101DD0000F9211240BB60F922F933F938F939F93E3
:101DE000EF93FF932091B6043091B7048091B8042B
:101DF0009091B9042817390731F48091C1008F7D83
:101E00008093C10014C0E091B804F091B904EA587D
:101E1000FB4F20818091B8049091B90401968F7393
:101E200099279093B9048093B8042093C600FF913A
:101E3000EF919F918F913F912F910F900BBE0F903B
:101E40000FBE0F901F9018951F920F920FB60F9212
:101E500011240BB60F922F933F934F935F936F9381
:101E60007F938F939F93AF93BF93EF93FF93809153
:101E7000300182FD07C08091360162E273E00E946A
:101E8000C60A02C080913601FF91EF91BF91AF91D8
:101E90009F918F917F916F915F914F913F912F9182
:101EA0000F900BBE0F900FBE0F901F9018951F92B2
:101EB0000F920FB60F9211240BB60F922F933F93F0
:101EC0004F935F936F937F938F939F93AF93BF9342
:101ED000EF93FF938091D00082FD07C08091D600E0
:101EE0006AEA73E00E94C60A02C08091D600FF91A0
:101EF000EF91BF91AF919F918F917F916F915F9182
:101F00004F913F912F910F900BBE0F900FBE0F90EE
:101F10001F9018951F920F920FB60F9211240BB6B7
:101F20000F922F933F934F935F936F937F938F9372
:101F30009F93AF93BF93EF93FF938091C80082FD6F
:101F400007C08091CE0062E374E00E94C60A02C01E
:101F50008091CE00FF91EF91BF91AF919F918F91B2
:101F60007F916F915F914F913F912F910F900BBE99
:101F70000F900FBE0F901F9018951F920F920FB6E3
:101F80000F9211240BB60F922F933F934F935F93B1
:101F90006F937F938F939F93AF93BF93EF93FF9331
:101FA0008091C00082FD07C08091C6006AEB74E09A
:101FB0000E94C60A02C08091C600FF91EF91BF91B6
:101FC000AF919F918F917F916F915F914F913F91D1
:101FD0002F910F900BBE0F900FBE0F901F90189572
:101FE000FC0124813581232B31F421E06115710539
:101FF000A1F0FB0108C0FC01808191816115710590
:1020000031F421E0FC018081882339F005C00E9471
:10201000122E21E0892B09F020E0822F0895CF9322
:10202000DF93EC0188819981009711F00E949B2C2D
:10203000198218821D821C821B821A82DF91CF9125
:102040000895EF92FF920F931F93CF93DF93EC01CC
:102050007B018A0188819981009729F02A813B813F
:1020600024173507B0F4B8016F5F7F4F0E94242D0D
:10207000009759F0998388831B830A832C813D81C3
:10208000232B39F4FC01108204C0CE010E940F10F2
:1020900007C01D830C83B701888199810E941B2E84
:1020A000CE01DF91CF911F910F91FF90EF90089596
:1020B000CF93DF93EC016115710559F0FB0101909D
:1020C0000020E9F73197AF01461B570B0E94211002
:1020D00002C00E940F10CE01DF91CF9108958F9220
:1020E0009F92AF92BF92CF92DF92EF92FF920F93A7
:1020F0001F93CF93DF9300D01F92CDB7DEB77C0143
:102100005B016A014901FC01868D978D8732F3E9F5
:102110009F0799F4F7018589823031F4F0E2CF0E00
:10212000D11C005E1F4F1EC08330E1F420E2A20EDE
:10213000B11C80E2880E911C15C08632954191F445
:10214000F701858980FF0EC0C801841B950B19F427
:102150000F5F1F4F07C06217730721F44B01880EF2
:10216000991E8A01F701848D80FF3BC084A5B98246
:10217000AA829B828C82AE014F5F5F4F64E090E049
:102180000E94DE0BF70180A9D982CA821B830C83CF
:10219000AE014F5F5F4F64E090E00E94DE0B8091E4
:1021A000DD02882309F459C0F701868D978D8536A5
:1021B000910509F052C0B982AA82AE014F5F5F4F0C
:1021C00062E086A197A10E94DE0BD982CA82AE018D
:1021D0004F5F5F4F62E0F70180A591A50E94DE0B83
:1021E0003CC0B501F70186A197A10E94350DB6014B
:1021F000F70180A591A50E94350D8A149B0419F45E
:102200000C151D0551F1F701848D85FF0EC08589E0
:1022100080FF06C0102F0027C02AD12A860105C0E2
:10222000982C8824A828B9284501B501F70184A570
:1022300095A50E94350DB601F70180A991A90E94CC
:10224000350DB401F70186A597A50E94350DB8019B
:10225000F70182A993A90E94350D0F900F900F905E
:102260000F90DF91CF911F910F91FF90EF90DF9032
:10227000CF90BF90AF909F908F900895AF92BF92F4
:10228000CF92DF92EF92FF920F931F93CF93DF9342
:10229000EC018091DC02882349F0C7018F719927F6
:1022A000880F991FE1ECEE22E82AF92A37FF05C0D2
:1022B000620F731F319521953109260F371F77FF64
:1022C00002C060E070E0E885F9852E173F070CF446
:1022D000F9015F01A61AB70A17FF05C0400F511F89
:1022E000119501951109CA01800F911F57FF02C076
:1022F00040E050E00A851B85801791070CF48C01A3
:102300006801C41AD50A015011099F0121503109F1
:10231000CE010E946F108B988A988AA59BA5209168
:102320000201277820930201A5982EB1277C2EB9AF
:1023300060910201292F3327A9014370552705E039
:10234000440F551F0A95E1F7462B409302016EB1E9
:10235000A9014C705527440F551F440F551F462B9C
:102360004EB964B3A90140715527440F551F462B40
:1023700044BB6EB1A90140725527559547955595B7
:102380004795462B4EB940910201207C3327A3E0AC
:1023900035952795AA95E1F7242B2093020189987A
:1023A000899A20910201277820930201A5982EB1E5
:1023B000277C2EB9409102019C0123703327B5E0A0
:1023C000220F331FBA95E1F7242B209302014EB15F
:1023D0009C012C703327220F331F220F331F242B15
:1023E0002EB944B39C0120713327220F331F242BB5
:1023F00024BB4EB19C012072332735952795359526
:102400002795242B2EB920910201807C992763E027
:10241000959587956A95E1F7822B809302018998BB
:10242000899A8A9AAC14BD042CF49A2D8B2D5601EE
:10243000C92ED82E8F2D99279C01237033272295E2
:10244000220F207EAC014C705527342F330F330FF1
:10245000AC0140715527440FBC0176956795769580
:102460006795562F587063E0969587956A95E1F7C2
:102470008871B70163707727962F9295990F907E98
:10248000B7016C707727660F660FF701E071FF27C1
:102490007E2F770FD701B695A795B695A795A8700B
:1024A000F701B3E0F695E795BA95E1F71E2F18719D
:1024B0001C141D040CF043C0F501B0910201B77863
:1024C000B0930201A598BEB1B77CBEB9B09102012C
:1024D000B22BB0930201BEB1B32BBEB9B4B3B42BCF
:1024E000B4BBBEB1B52BBEB9B0910201B82BB0934D
:1024F00002018998899AB0910201B778B0930201DC
:10250000A598BEB1B77CBEB9B0910201B92BB0930A
:102510000201BEB1B62BBEB9B4B3B72BB4BBBEB1CA
:10252000BA2BBEB9B0910201B12BB09302018998C8
:10253000899A319711F6E1E0CE1AD108B9CF8B9A7A
:102540008C8D80FF08C08E8D9F8D8632954191F4D1
:102550008D8980FF0FC00A851B85015011092885D0
:1025600039852150310940E050E060E070E0CE0153
:102570000E946F10DF91CF911F910F91FF90EF900C
:10258000DF90CF90BF90AF900895EF92FF920F939E
:102590001F93CF93DF937C01E90177FD69C157FD5C
:1025A00067C1FC0180859185681779070CF060C1CF
:1025B00082859385481759070CF05AC18091DC0237
:1025C000882341F0CE018F719927880F991FC17C14
:1025D000C82BD92B8A019B01C7010E946F108091E3
:1025E000DD02882309F438C18B988A98F70182A507
:1025F00093A520910201277820930201A5982EB17E
:10260000277C2EB960910201292F3327A90143703D
:10261000552775E0440F551F7A95E1F7462B4093F7
:1026200002016EB1A9014C705527440F551F440F8C
:10263000551F462B4EB964B3A90140715527440F6D
:10264000551F462B44BB6EB1A901407255275595C5
:10265000479555954795462B4EB940910201207CF0
:102660003327B3E035952795BA95E1F7242B2093CE
:1026700002018998899A209102012778209302010A
:10268000A5982EB1277C2EB9409102019C012370A0
:10269000332715E0220F331F1A95E1F7242B2093DF
:1026A00002014EB19C012C703327220F331F220FE1
:1026B000331F242B2EB944B39C0120713327220FE2
:1026C000331F242B24BB4EB19C0120723327359538
:1026D000279535952795242B2EB920910201807CD2
:1026E000992773E0959587957A95E1F7822B8093EA
:1026F00002018998899A8A9A2C2F220F220F220F81
:1027000080910201877880930201A5988EB1877C21
:102710008EB980910201809302013EB1CE018827DB
:10272000987F892F9927AC014C705527440F551F6E
:10273000440F551F432B4EB934B3AC01407155279C
:10274000440F551F432B44BB3EB1AC01407255278B
:102750005595479555954795432B4EB930910201B4
:10276000807C992713E0959587951A95E1F7832B3F
:10277000809302018998899A8091020187788093D9
:102780000201A5988EB1877C8EB980910201809359
:1027900002013EB1C07ED77003E0D695C7950A9579
:1027A000E1F7CE018C709927880F991F880F991F28
:1027B000832B8EB934B3CE0180719927880F991F6E
:1027C000832B84BB3EB1CE01807299279595879566
:1027D00095958795832B8EB980910201C07CDD276A
:1027E00073E0D595C7957A95E1F7C82BC0930201A0
:1027F0008998899A80910201877880930201A5982F
:102800008EB1877C8EB980910201809302019EB1C6
:10281000822F8C70880F880F892B8EB994B3822FEA
:102820008071880F892B84BB3EB1922F9072892FC3
:1028300090E09595879595958795832B8EB9809196
:102840000201207C269526952695282B20930201AF
:102850008998899A8B9A0CC0BE01F70182A593A52D
:10286000DF91CF911F910F91FF90EF900C94350D58
:10287000DF91CF911F910F91FF90EF900895DF921C
:10288000EF92FF920F931F93CF93DF93CDB7DEB7F5
:102890002A970FB6F894DEBF0FBECDBF7C01862FFE
:1028A0008370D70155968C935597462F417060FFE2
:1028B00005C016962D913C91179703C0F70124810E
:1028C0003581D70119963C932E931897442329F00C
:1028D00014962D913C91159703C0F70126813781FD
:1028E000D7011B963C932E931A97823041F0833088
:1028F00041F0813011F088E405C088E203C088E926
:1029000001C088EF8A87F701248D358D30FF03C021
:102910008A8580588A8731FF04C09A8580E4892798
:102920008A8733FF04C09A8588E089278A87D70180
:102930005E968D919C915F9720FFD5C01091DD022E
:102940008431B8E69B07F9F49A85892F881F882778
:10295000881F8295880F880F807C96FD02C020E03A
:1029600001C020E298729A871F828260822B88873A
:102970008BE38987AE01495F5F4F63E086EB90E0B0
:102980000E94DE0B89C08336E9E19E0741F0813861
:10299000F4E99F0721F0813125E1920709F52A85A5
:1029A00027FF02C021602A872A8526FF02C02260F5
:1029B0002A87833639E1930719F48A858F730EC00D
:1029C000813844E9940719F48A858F7207C08131F0
:1029D000954109F061C08A858F7E806C8A875CC0D2
:1029E000112309F459C062E070E0F70177A366A3F0
:1029F00026E030E031A720A7E2E2F0E0D7019B9685
:102A0000FC93EE939A979D967C936E939C9764E0CB
:102A100070E09F967C936E939E97D1963C932E93F5
:102A2000D09728E030E0D3963C932E93D29785360A
:102A3000910521F58A85982F916084FD02C09A87BF
:102A400003C083ED89278A87442351F082E890E010
:102A5000F70197A386A380E890E091A780A732C2F0
:102A600080E890E0D70197969C938E93969782E8A2
:102A700090E099969C938E93989724C282359245C4
:102A800001F58A85982F926084FD02C09A8719C04B
:102A900084ED89278A8715C02AE230E0F70137A341
:102AA00026A38BE290E091A780A74CE250E053A7C9
:102AB00042A735A724A737A726A791AB80AB93AB36
:102AC00082AB1111FFC186E390E0AE01465F5F4F1C
:102AD00061E00E94DE0B8A8590E0D70193969C937B
:102AE0008E939297E6C02A858339B7E79B0709F44E
:102AF00048C050F48435F1E09F0781F0803234E51E
:102B0000930709F081C03DC0863243E99407C9F1BB
:102B10008930A5EB9A0709F077C033C087E390E0CE
:102B2000F70195A784A786E390E097A786A789E396
:102B300090E091AB80AB88E390E093AB82AB80E216
:102B400090E097A386A381E290E091A780A782E21C
:102B500090E093A782A7822F022E000C990B882762
:102B6000990F881F9927982F8827990F26FD03C052
:102B700060E070E002C060E071E08862682B792B51
:102B800082C040E052E0D70197965C934E939697AF
:102B900041E052E099965C934E93989742E052E060
:102BA0009B965C934E939A9740E152E09D965C937E
:102BB0004E939C9741E152E09F965C934E939E9773
:102BC00042E152E0D1965C934E93D09743E152E0BC
:102BD000D3965C934E93D29727FD03C020E030E05C
:102BE00002C020E030E88632B3E99B0731F0803242
:102BF000944519F060E07AE602C060E075E3622B6C
:102C0000732B80E094E035C080E290E0D701979686
:102C10009C938E93969781E290E099969C938E93E5
:102C2000989782E290E09B969C938E939A9780E58A
:102C300090E09D969C938E939C9781E590E09F9663
:102C40009C938E939E9782E590E0D1969C938E9371
:102C5000D09783E590E0D3969C938E93D29727FDEF
:102C600003C060E070E002C060E070E8776280E678
:102C700090E00E94350D8A8586FD03C060E070E01B
:102C800002C060E071E081E090E00E94350D8A852D
:102C900085FD03C060E070E002C068E070E083FD85
:102CA00070616063F70173A362A383E090E00E9408
:102CB000350DD70155968C91559780FF36C05C969F
:102CC0008D919C915D9792FD30C096968D919C91CF
:102CD000979798962D913C91999797963C932E9320
:102CE000969799969C938E9398979C968D919C918C
:102CF0009D97D0962D913C91D1979D963C932E9384
:102D00009C97D1969C938E93D0979E968D919C91F3
:102D10009F97D2962D913C91D3979F963C932E935B
:102D20009E97D3969C938E93D297F7010285138535
:102D300001501109208531852150310940E050E0D2
:102D400060E070E0C7010E946F10D70116966D9188
:102D50007C9117975E968D919C915F978732B3E92E
:102D60009B0741F4F70125892250223018F400E234
:102D700010E002C000E010E08732F3E99F0729F07D
:102D800022273327201B310B04C020E230E0201B18
:102D9000310BD7015C964C9140FF45C01982D02E73
:102DA0000A837B836C833D832E831091DD02111196
:102DB00003C083E390E002C08EE090E0AE014F5F7D
:102DC0005F4F66E00E94DE0B1982DA82111103C0A8
:102DD00087E390E002C084E190E0AE014F5F5F4F77
:102DE00062E00E94DE0B112389F01982F701868DC3
:102DF000978D8734934819F081E090E002C088E114
:102E000090E0AE014F5F5F4F61E00AC0D7015C9672
:102E10008C9180FF5AC040E050E060E083E190E098
:102E20000E94DE0B52C08339B7E79B0779F160F44B
:102E30008032F4E59F0751F1833827E7920781F04C
:102E40008435914089F510C0863243E99407F1F04A
:102E50008930A5EB9A07D1F08532924929F504C053
:102E6000F70160A171A124C0600F711F6150710949
:102E700081E390E00E94350DB80182E390E00E946A
:102E8000350D60E070E083E390E019C0D7019096C3
:102E90006D917C919197626081E094E00E94350D84
:102EA000B80184E094E00BC0F70160A171A16260F9
:102EB00081E690E00E94350DB8018AE690E00E941C
:102EC000350D03C086E190E000CE2A960FB6F89447
:102ED000DEBF0FBECDBFDF91CF911F910F91FF904D
:102EE000EF90DF90089508956115710579F0FB0169
:102EF00001900020E9F73197AF01461B570BDC0129
:102F0000ED91FC910280F381E02D199480E090E036
:102F10000895FC01848D958D292F22952F7030E026
:102F200021703327A9014627BA0171A360A380FF4E
:102F30000CC0672B19F480E290E002C081E290E0BF
:102F400040E050E060E00C94DE0B868D978D833975
:102F500057E79507E1F040F4843541E0940779F0B4
:102F600080329445C1F413C0863223E9920779F088
:102F7000893045EB940759F08532924961F4660F28
:102F8000771F660F771F636187E090E006C062607D
:102F900081E094E002C081E690E00C94350D0C9441
:102FA0007417E3E6FEE04491EDE1FEE02491E7EDE5
:102FB000FDE09491992309F463C0442309F451C0BE
:102FC00050E0FA013197E131F10508F04AC0882755
:102FD000EE58FF4F8F4F0C94442E809180008F77D6
:102FE00003C0809180008F7D809380003AC084B5BB
:102FF0008F7702C084B58F7D84BD33C08091B000CF
:103000008F7703C08091B0008F7D8093B00029C07E
:10301000809190008F7707C0809190008F7D03C0D2
:1030200080919000877F809390001BC08091A000CA
:103030008F7707C08091A0008F7D03C08091A00092
:10304000877F8093A0000DC0809120018F7707C0FB
:10305000809120018F7D03C080912001877F809324
:103060002001E92FF0E0EE0FFF1FE857F24FA59186
:10307000B491EC91E22381E090E021F480E00895A6
:1030800080E090E0089581E080937505E1E0F1E053
:103090008081886780839D9A8DB188638DB9809A7D
:1030A000819A829A839A849A8B9A889A899A8C9A1E
:1030B00062E370E080E090E00E946F1D8C9864E60F
:1030C00070E080E090E00E946F1D8C9A64E670E0F2
:1030D00080E090E00E946F1D60E070E080EB90E087
:1030E0000C94350D0F931F93CF93DF93EC01162FA4
:1030F00080917505811102C00E9443188B988A98AF
:1031000080910201877880930201A5988EB1877C17
:103110008EB9409102018D2F99279C01237033278E
:1031200055E0220F331F5A95E1F7242B209302011B
:103130004EB19C012C703327220F331F220F331FF7
:10314000242B2EB944B39C0120713327220F331F47
:10315000242B24BB4EB19C01207233273595279533
:1031600035952795242B2EB920910201807C992733
:10317000F3E095958795FA95E1F7822B809302010C
:103180008998899A80910201877880930201A59895
:103190008EB1877C8EB920910201CE018370992770
:1031A000A5E0880F991FAA95E1F7822B8093020171
:1031B0002EB1CE018C709927880F991F880F991F07
:1031C000822B8EB924B3CE0180719927880F991F65
:1031D000822B84BB2EB1CE0180729927959587955D
:1031E00095958795822B8EB980910201C07CDD2751
:1031F00043E0D595C7954A95E1F7C82BC0930201E6
:103200008998899A8A9A809101018778809301012F
:103210009D988DB1877C8DB961E070E080E090E091
:103220000E946F1D889A88988898889860910001FC
:103230008CB1A2B34CB100910001889A889A889809
:1032400088988898E0910001FCB132B32CB1C0910C
:103250000001889A115017FFE5CF889A8B9A9091B8
:1032600001019867909301019D9A9DB198639DB962
:10327000487050E0440F551F440F551F087198E0E7
:10328000099F80011124402B512BA072B0E0B5950D
:10329000A7954A2B5B2B807390E095958795959524
:1032A0008795482B592B607670E0B5E0759567954A
:1032B000BA95E1F7462B572B542F44272870220F3D
:1032C000220F8C2F887198E0899FE00111249C2F98
:1032D000922B3072232F30E035952795292B9F2F85
:1032E000907396959695922B2E2F20762295269563
:1032F0002770292BCA01822BDF91CF911F910F914B
:103300000895FF920F931F93CF93DF93EC0160E03A
:103310000E9472188C0161E0CE010E947218F82E92
:1033200062E0CE010E94721820E030E0302F2227A8
:103330001127002740E050E05F2D60E070E0042B93
:10334000152B262B372B492F50E060E070E0CB0186
:10335000BA01602B712B822B932BDF91CF911F91A0
:103360000F91FF9008950F931F93CF93DF938C01DC
:1033700060E00E947218EC0161E0C8010E947218BE
:10338000AC01CE01A0E0B0E0DC019927882760E025
:1033900070E08C019D01042B152B262B372BC901C6
:1033A000B801DF91CF911F910F9108958F929F9255
:1033B000AF92BF92CF92DF92EF92FF920F931F9343
:1033C000CF93DF93CDB7DEB7A1970FB6F894DEBFEA
:1033D0000FBECDBF6C01142FE52FCB01022F19A218
:1033E000223008F40AE07E0121E2E20EF11C802E78
:1033F000912CA12CB12C612F7E2FA50194010E944C
:10340000222E029F1019112481E0E81AF1081A30C7
:1034100014F4105D01C0195CF7011083122FE32F23
:10342000CA01232B242B252B31F7B701C6010E949B
:103430007417A1960FB6F894DEBF0FBECDBFDF9113
:10344000CF911F910F91FF90EF90DF90CF90BF90A1
:10345000AF909F908F900895CF92DF92EF92FF925E
:103460000F931F93CF93DF93EC016A017B01E881F7
:10347000F9810190F081E02D6DE219958C014427CE
:103480005527BA014C195D096E097F092AE0CE0162
:103490000E94D619800F911FDF91CF911F910F913C
:1034A000FF90EF90DF90CF9008950F931F93CF93ED
:1034B000DF938C01EB01FC0180819181009799F0F1
:1034C000428153812C813D814217530750F068811E
:1034D00079810E941B2E8C819D81F80195838483C4
:1034E00013C00E949B2C88819981F801918380836D
:1034F0008A819B81938382838C819D819583848340
:10350000198218821B821A821D821C82DF91CF9140
:103510001F910F9108952F923F924F925F926F9259
:103520007F928F929F92AF92BF92CF92DF92EF9253
:10353000FF920F931F93CF93DF93CDB7DEB76B97B7
:103540000FB6F894DEBF0FBECDBF9B8F8A8F5B0195
:103550001A01D22E1F830E833701C982DC015896CF
:103560002D913C9159972115310509F0E6C0189627
:103570008D919C911997681779070CF0CDC11A9617
:103580008D919C911B97481759070CF0C5C18C2C45
:10359000912CFB0126E0C29EE00DF11D1124FB875A
:1035A000EA871E161F060CF0B7C1A40183E0440F82
:1035B000551F8A95E1F75D874C87CA01820D931DDF
:1035C000181619060CF0A8C157968C91811104C0E9
:1035D0005FEA5D1508F4D394AA8DBB8DED91FC9143
:1035E00011970680F781E02DCD011995B5E0DB9E9E
:1035F000C0011124F5013596FF87EE87BB82AA82B0
:1036000025019C012A193B09398B288BA101485FB0
:103610005F4F5B8B4A8BE889F989E40DF51DE8570C
:10362000F74F5491588761013D822C82888580FF35
:1036300013C0AA8DBB8DED91FC91B981B13031F4ED
:103640000084F185E02D2E813F8116C00284F38530
:10365000E02DEE80FF801AC0EE81FF81E615F705B0
:10366000F1F0AA8DBB8DED91FC91B981B13051F48F
:103670000084F185E02D9301A601B2018A8D9B8D16
:1036800019950DC00284F385E02D73018401940126
:103690004C815D816A817B818A8D9B8D1995E8853E
:1036A000E695E887FFEFCF1ADF0A2C813D81280DD0
:1036B000391D3D832C834A895B89C416D50609F0E0
:1036C000B5CF5FEF451A550A8A819B81880D991DF8
:1036D0009B838A83AE85BF854A165B0609F09BCF24
:1036E000EE81FF81E615F70509F4F4C0EA8DFB8D44
:1036F000A081B181F981F13079F4B5016B5F7F4F21
:103700001C96ED91FC911D97830128E030E0A1010A
:103710008A8D9B8D1995DEC06A857B85681979092C
:103720001A96ED91FC911B9773010C851D859401F0
:10373000A1018A8D9B8D1995CDC0F9013496E49134
:10374000DE1AF901329685919491B7E0DB9E800DE7
:10375000911D1124F901259134913B8B2A8BFC0199
:10376000259134912901FC013296C490319634910F
:103770003E87329614913196D4904981423058F068
:10378000612E012E000C77088D2D0D2C000C990B4D
:103790009987888704C019861886612C712CAA8D98
:1037A000BB8DED91FC9111970680F781E02DCD0145
:1037B0001995B9818B2E912C689CC001699C900D44
:1037C000789C900D1124FC01EA0DFB1DFD87EC8710
:1037D0001A82712C612CE12F110FFF0B95012E0F16
:1037E0003F1F3B872A87AC0CB11CA5014E0F5F1F02
:1037F0005F8B4E8BC1018D0D911DD7FC9A95998FD2
:10380000888F9E85691608F065C0862D90E04885F2
:103810005985480F591F489D9001499D300D589D6D
:10382000300D1124D101A20FB31FB98BA88BEC85E9
:10383000FD85FD83EC83AA84BB84DA80FA85DF1AD8
:10384000288D398D280F391F3D8B2C8B8D2D8A0D9E
:103850004E895F89A416B506C1F1877041F4C20193
:103860000196EA89FB89E40DF51D74902C0177FE21
:1038700021C0AA8DBB8DED91FC91B981B13061F46D
:103880000084F185E02D2E813F814C895D89B50151
:103890008A8D9B8D19950EC00284F385E02DEE80F4
:1038A000FF8084019401488959896C817D818A8DCA
:1038B0009B8D1995770CEFEFAE1ABE0A2C813D81D6
:1038C000280D391D3D832C83C1CF3A813C0D3A83AD
:1038D000639497CFAA8DBB8DED91FC9111970288CF
:1038E000F389E02DCD016B960FB6F894DEBF0FBEC5
:1038F000CDBFDF91CF911F910F91FF90EF90DF909F
:10390000CF90BF90AF909F908F907F906F905F907F
:103910004F903F902F9019946B960FB6F894DEBF9E
:103920000FBECDBFDF91CF911F910F91FF90EF9010
:10393000DF90CF90BF90AF909F908F907F906F90CF
:103940005F904F903F902F9008950F931F93CF93C8
:10395000DF93EC018B0110161106B4F4FE01859182
:1039600094912496FE013297659174918F3F2FEFC9
:10397000920729F480E090E00E946F1D02C00E942F
:10398000350D04501109E7CFDF91CF911F910F91B1
:103990000895DF92EF92FF920F931F93CF93DF93DF
:1039A000CDB7DEB768970FB6F894DEBF0FBECDBFB8
:1039B0007C018B011016110654F5F70184913196A4
:1039C000D490F2E0EF0EF11C8F3741F46D2D70E0D2
:1039D00080E090E00E946F1DD12C13C02E2DDE01DF
:1039E0001196F701AD019E2F921B9D1520F4949125
:1039F0009D933196F8CFED0CF11C6D2D90E00E9457
:103A0000DE0BED2DF0E032960E1B1F0BD3CF689628
:103A10000FB6F894DEBF0FBECDBFDF91CF911F91DF
:103A20000F91FF90EF90DF9008953FB7F894809149
:103A3000E1059091E205A091E305B091E40526B57A
:103A4000A89B05C02F3F19F00196A11DB11D3FBFD6
:103A5000BA2FA92F982F8827820F911DA11DB11D64
:103A6000BC01CD0142E0660F771F881F991F4A9560
:103A7000D1F70895FC0111821082138212821582FF
:103A8000148216826115710551F0FB01019000202E
:103A9000E9F73197AF01461B570B0C94211008959D
:103AA000863308F0865390917B00282F2870977FEB
:103AB000922B90937B008770806480937C00809130
:103AC0007A00806480937A0080917A0086FDFCCF32
:103AD000809178002091790090E0922B0895CF9208
:103AE000DF92EF92FF92CF93DF936B017C010E94F4
:103AF000151DEB01C114D104E104F10479F00E9419
:103B0000151D6C1B7D0B683E7340A0F381E0C81A45
:103B1000D108E108F108C851DC4FECCFDF91CF911B
:103B2000FF90EF90DF90CF9008951F920F920FB605
:103B30000F9211242F933F938F939F93AF93BF9333
:103B40008091DD059091DE05A091DF05B091E00543
:103B50003091DC0523E0230F2D3720F40196A11DC1
:103B6000B11D05C026E8230F0296A11DB11D2093AB
:103B7000DC058093DD059093DE05A093DF05B0930F
:103B8000E0058091E1059091E205A091E305B091F7
:103B9000E4050196A11DB11D8093E1059093E20516
:103BA000A093E305B093E405BF91AF919F918F91EE
:103BB0003F912F910F900FBE0F901F901895CF92AD
:103BC000DF92EF92FF920F931F93CF93DF93C091F9
:103BD0002805D0912905C0902A05D0902B0567E7CC
:103BE00072E087E395E00E94F00F082F882341F0F0
:103BF0006DE772E080E395E00E94F00F811111C043
:103C000060E872E087E395E00E94F00F182F8823A8
:103C100081F16AE772E080E395E00E94F00F88236B
:103C200041F180912C0590912D05BE016B5F7F4F76
:103C3000DC01ED91FC91048CF58DE02DE12CF12C53
:103C400005E010E02FE030E0A601199580912C05E9
:103C500090912D05BE01615F7F4FDC01ED91FC91DC
:103C6000048CF58DE02D0FE010E025E030E0A6019A
:103C70003EC0002341F060E872E080E395E00E94DE
:103C8000F00F811111C06DE772E087E395E00E94AB
:103C9000F00F082F8823B9F16AE772E080E395E01E
:103CA0000E94F00F882379F180912C0590912D05C9
:103CB000DC01ED91FC91048CF58DE02DE12CF12CD3
:103CC00005E010E02FE030E0A601BE0119958091DB
:103CD0002C0590912D05DC01ED91FC91048CF58D66
:103CE000E02D0FE010E025E030E0A601BE011995BF
:103CF00010923E05DF91CF911F910F91FF90EF90B1
:103D0000DF90CF9008956AE772E087E395E00E9424
:103D1000F00FF82E882309F47BC06DE772E080E392
:103D200095E00E94F00F81110AC01123B1F167E7FD
:103D300072E080E395E00E94F00F882361F18091AA
:103D40002C0590912D05A6014B5F5F4FBE01615F71
:103D50007F4FDC01ED91FC91048CF58DE02DE12C81
:103D6000F12C0FE010E025E030E0199580912C0552
:103D700090912D05A601415F5F4FBE016B5F7F4FA4
:103D8000DC01ED91FC91048CF58DE02D05E010E057
:103D90002FE030E0ACCFFF2041F060E872E080E33C
:103DA00095E00E94F00F81110CC0002309F4A0CF10
:103DB00067E772E080E395E00E94F00F882309F442
:103DC00097CF80912C0590912D05A6014B5F5F4FF9
:103DD000DC01ED91FC91048CF58DE02DE12CF12CB2
:103DE0000FE010E025E030E0BE01199580912C0530
:103DF00090912D05A601415F5F4FDC01ED91FC9193
:103E0000048CF58DE02D05E010E02FE030E06ECF62
:103E1000112359F28CCFEF92FF920F931F93CF9300
:103E2000DF93C0E2D5E08C859D85DC01ED91FC91AE
:103E3000068CF78DE02D60E070E019958C859D85EE
:103E4000DC01ED91FC91048CF58DE02DEE24EA94DB
:103E5000FE2C04E110E020EE31E040E050E060E0B4
:103E600070E019958C859D85DC01ED91FC91048CA9
:103E7000F58DE02D30EEE32E37E0F32E24E130E037
:103E800040EA50E060EF70E019958C859D85DC017B
:103E9000ED91FC91048CF58DE02DE12C48EFF42E92
:103EA00024E130E040E550E060EF70E01995EC85EA
:103EB000FD858CED90E0958784870AE010E01787F8
:103EC000068781E0848B80E098EF918B808B8FEF69
:103ED0009FEF938B828B64EC72E0CF010E94CF172F
:103EE0008C859D8520E931E0FC0135872487178783
:103EF000068763ED72E00E94CF171F861E86DF9152
:103F0000CF911F910F91FF90EF900895EF92FF9244
:103F10000F931F93DC011A960D911C911B97189615
:103F20002D913C911997ED91FC91048CF58DE02D2C
:103F30007B0140E050E060E070E019951F910F9127
:103F4000FF90EF900895CF93DF93CDB7DEB76697DC
:103F50000FB6F894DEBF0FBECDBF789484B58260F3
:103F600084BD84B5816084BD85B5826085BD85B51D
:103F7000816085BD80916E00816080936E0010929B
:103F80008100809181008260809381008091810016
:103F900081608093810080918000816080938000A7
:103FA0008091B10084608093B1008091B000816005
:103FB0008093B00080919100826080939100809105
:103FC0009100816080939100809190008160809346
:103FD00090008091A10082608093A1008091A10057
:103FE00081608093A1008091A00081608093A000F7
:103FF0008091210182608093210180912101816063
:104000008093210180912001816080932001809123
:104010007A00846080937A0080917A008260809335
:104020007A0080917A00816080937A0080917A0092
:10403000806880937A001092C100E0911205F0919F
:10404000130581E090E09C0100901E0502C0220F44
:10405000331F0A94E2F72083E0910E05F0910F05DB
:104060001082E0911005F09111052FEC2083109241
:104070001F05E0911405F091150540819C01009009
:104080001A0502C0220F331F0A94E2F7242B208363
:10409000E0911405F091150540819C0100901B05ED
:1040A00002C0220F331F0A94E2F7242B2083E091F1
:1040B0001405F091150540819C0100901C0502C07B
:1040C000220F331F0A94E2F7242B2083E09114057A
:1040D000F0911505208100901D0502C0880F991FE1
:1040E0000A94E2F78095822380838EEF94E00E9409
:1040F0006F0AEDE1FEE02491E7EDFDE08491882375
:10410000C9F090E0880F991FFC01E054FE4F4591E3
:104110005491FC01EA55FE4FA591B4919FB7F894D4
:10412000FA018081322F309583238083EC912E2BEE
:104130002C939FBF81E495E090932D0580932C05EF
:1041400060E080E090E00E9472188830F4E59F07FC
:1041500009F4D5C0803224E5920709F4D3C0893828
:10416000994809F4D2C060E087E690E00E94721896
:104170008734974409F4CCC081EA90E00E94B319D7
:10418000613081E6780709F4C6C06F3F7F4F19F4AC
:1041900006E215E1F4C08FEB90E00E9481196735CB
:1041A000A3E87A0709F4BAC06138B4E97B0709F4D7
:1041B000B8C06131E5E17E0709F4B6C06032F5E1CF
:1041C0007F0709F4B4C0663225E1720709F361384C
:1041D00085E1780709F4AEC06115744109F4ADC0FA
:1041E00084ED90E00E94B3196031734509F4A8C0D2
:1041F00087ED90E00E94B3196133704809F4A3C0C1
:104200008FEE90E00E9481196732734909F49EC0D5
:104210008EEF90E00E94B319BB27A92F982F872F0C
:104220008335904209F495C084E090E00E94B31970
:104230009B01811124C0211560E8360701F58091AA
:10424000060290910702A091080289839A83AB83AA
:10425000AE014F5F5F4F63E089EB90E00E94DE0BA1
:1042600060E080ED90E00E947218893929F0803971
:10427000C9F400E910E983C009E910E080C02632E2
:1042800075E1370709F484CF203F89E8380709F43E
:1042900063C0223595E8390709F461C021313C4AF1
:1042A00009F460C083ED90E00E94B319BB27A92FE9
:1042B000982F872F8336914909F457C083ED90E0FA
:1042C0000E94B3193DE6370F323008F451C07839F7
:1042D00009F44EC0773709F44BC0763109F448C071
:1042E000633D710509F446C0633D734D09F445C053
:1042F00060E080E090E00E9472188C0140C008E00D
:1043000014E53DC000E214E53AC009E812E137C007
:1043100007E413E834C003E619E131C007E513E808
:104320002EC001E814E92BC001E115E128C000E22C
:1043300015E125C001E815E122C004E118E61FC01F
:1043400000E113E51CC001E310E819C007E213E91E
:1043500016C003E510E213C005E317E710C009E833
:1043600017E70DC001E11CEA0AC003E611E907C026
:104370008B0105C003ED10E002C003ED13ED0E94B8
:10438000431810925C0510925B0510936005009332
:104390005F05073523E8120709F499C108F0A5C0A5
:1043A000033570E2170709F4F3C108F047C0013183
:1043B00095E1190709F42CC1B0F40939110509F484
:1043C0009EC138F40130110509F04DC280E091E141
:1043D000B0C10435B1E01B0709F40FC10530154128
:1043E00009F4A5C140C20632F5E11F0709F428C14E
:1043F00080F40032154109F036C283E194E09093D5
:104400005E0580935D0566E0E62EF12C03EA13E07D
:1044100030C2013875E1170709F4CFC102301641E7
:1044200009F021C283E094E090935E0580935D05DE
:10443000B6E0EB2EF12C0CEF12E01BC2043198E633
:10444000190709F421C108F50031B3E51B0709F488
:1044500003C178F40533154409F005C280E090E10A
:1044600090935E0580935D056CE970E080E597E0D0
:10447000E4C1083024E5120709F459C1093018468F
:1044800009F0F1C182E091E162C1033977E71707D2
:1044900009F4D6C1A8F4033897E7190709F40CC149
:1044A0000938174709F0DFC183E194E090935E0576
:1044B00080935D0521E4E22EF12C01E513E0D9C1E2
:1044C0000639B7E71B0709F493C10133104809F017
:1044D000CAC183E194E190935E0580935D0592E10A
:1044E000E92EF12C0FE313E0C4C10833F3E91F07F1
:1044F00009F454C170F5073263E9160709F430C1B5
:10450000B8F4023083E9180709F445C138F40039DA
:10451000104909F0A8C183E194E1DBC00032B3E99E
:104520001B0709F404C10532134909F40BC19BC1EF
:104530000932F3E91F0709F434C108F403C1013358
:1045400063E9160709F401C10533134909F4FDC0F5
:104550008AC1093884E91807C8F5073894E91907AA
:1045600008F049C10138A4E91A0709F429C190F4F7
:10457000005413490230110508F075C183E194E03D
:1045800090935E0580935D05F5E6EF2EF12C04E92E
:1045900012E06FC10638144909F065C183E094E068
:1045A00090935E0580935D0580EE91E090934805C1
:1045B0008093470580E491E09093460580934505FC
:1045C0007BE3E72EF12C04E112E053C10530F5EB5B
:1045D0001F0709F428C138F401311C4A09F043C10E
:1045E00083E194E1E0C0093075EB170709F428C1B5
:1045F0000530154C09F417C136C182E090E1909363
:104600005E0580935D056CE970E08CEE97E015C166
:1046100083E090E090935E0580935D0580EE91E0ED
:10462000909348058093470580E491E09093460578
:104630008093450573E0E72EF12C09EA13E019C1D8
:1046400083E194E090935E0580935D055CE0E52E48
:10465000F12C07E913E00DC183E19EE090935E0524
:1046600080935D0580EE91E0909348058093470527
:1046700080E491E0909346058093450542E0E42E66
:10468000F12C05E913E0F5C083E094E090935E051A
:1046900080935D0580EE91E09093480580934705F7
:1046A00080E491E0909346058093450533E0E32E46
:1046B000F12C02E913E0DDC082E091E190935E0508
:1046C00080935D0560E970E080EC96E0B6C083E021
:1046D00094E190935E0580935D0580EE91E0909368
:1046E00048058093470580E491E0909346058093C8
:1046F000450582E0E82EF12C0DE313E0BAC083E11A
:1047000094E190935E0580935D0580EE91E0909337
:1047100048058093470580E491E090934605809397
:1047200045050DE1E02EF12C00E213E0A2C084E08B
:1047300090E190935E0580935D0568ED70E088EEF2
:1047400095E07BC080E091E102C080E090E1909331
:104750005E0580935D056CEC70E08CE195E06DC0CA
:1047600083E094E090935E0580935D0580E991E09D
:10477000909348058093470580EF90E0909346051D
:10478000809345051EE1E12EF12C02E013E071C09B
:1047900087E194E108C083E094E005C083E194E000
:1047A00002C083E096E190935E0580935D05A3E0EF
:1047B000EA2EF12C09EF12E05CC083E194E002C024
:1047C00087E094E090935E0580935D0580EE91E034
:1047D000909348058093470580E491E090934605C7
:1047E00080934505E5E4EE2EF12C0FE412E041C084
:1047F00083E094E002C083E194E090935E058093AF
:104800005D0580EE91E0909348058093470580E434
:1048100091E090934605809345056BE2E62EF12CDE
:1048200009EE11E026C088E090E190935E05809348
:104830005D0560EB70E08CE694E00E94A51C17C05B
:1048400080E090E190935E0580935D0560EC70E000
:104850008CEA93E00E94A51C80E991E090934805C2
:104860008093470504C0109246051092450500E06C
:1048700010E020915E05822F82958F7090E081700C
:10488000992790936205809361050115110581F0C8
:1048900069E070E080EE91E00E94C91CB701C80198
:1048A0000E94C91C66E070E08AED91E00E94C91C7C
:1048B00060E081E495E00E943F1460E081E495E0CF
:1048C0000E94891780915F0590916005883894490E
:1048D00009F064C21092DC0220EE3FEF40E050E0AD
:1048E00060E070E081E495E00E94C512E0906B0505
:1048F000F0906C058091DD02811107C080915D050B
:1049000080FF03C05EE2E52EF12C80915F0590915F
:1049100060058230964119F44EE2E42EF12C00E05D
:1049200010E020E030E040E050E060E070E081E442
:1049300095E00E946F1080915D0580FD10C060E0E1
:1049400070E080916705909168050E94350D60E0E8
:1049500070E08091690590916A050E94350D8B98F1
:104960008A9880910201877880930201A5988EB180
:10497000877C8EB9409102018F2D99279C0123706D
:10498000332755E0220F331F5A95E1F7242B20934C
:1049900002014EB19C012C703327220F331F220FCE
:1049A000331F242B2EB944B39C0120713327220FCF
:1049B000331F242B24BB4EB19C0120723327359525
:1049C000279535952795242B2EB920910201807CBF
:1049D0009927F3E095958795FA95E1F7822B8093D7
:1049E00002018998899A8091020187788093020157
:1049F000A5988EB1877C8EB920910201C701837082
:104A00009927A5E0880F991FAA95E1F7822B80933B
:104A100002012EB1C7018C709927880F991F880F4A
:104A2000991F822B8EB924B3C70180719927880FF3
:104A3000991F822B84BB2EB1C7018072992795954F
:104A4000879595958795822B8EB920910201C70194
:104A5000807C992733E0959587953A95E1F7822BED
:104A6000809302018998899A8A9A809101018778B6
:104A7000809301019D988DB1877C8DB940915D0532
:104A800050915E0580915F059091600546FD1EC0C6
:104A9000889A889888988898209100012CB122B330
:104AA0002CB120910001889A40FD10C08938E2E1C4
:104AB0009E0761F0889A88988898889820910001CC
:104AC0002CB122B32CB120910001889A81319541FB
:104AD00061F4889A889888988898809100018CB1B0
:104AE00082B38CB180910001889AFA01E470FF27AB
:104AF000889A88988898889844FF8CC060910001B3
:104B00008CB192B37CB1309100016076262F229552
:104B100026952770807386958695682F622B9072F4
:104B2000892F90E095958795862B672F6870660F83
:104B3000660F862B632F687128E0629FB0011124F5
:104B4000682B889A889A889888988898809100011C
:104B50002CB192B37CB1A09100018076382F3295B0
:104B600036953770207326952695822F832B907269
:104B7000292F30E035952795282B872F8870880FAF
:104B8000880F282B8A2F887178E0879F7001112465
:104B9000822F8E29889A889A889888988898709108
:104BA0000001ACB132B32CB1909100017076B72FF7
:104BB000B295B695B770A073A695A6957A2F7B2B64
:104BC0003072A32FB0E0B595A795A72B2870220FC0
:104BD000220FA22B9871B8E09B9F900111242A2BE1
:104BE000889A8C7FEF2B59F0287FE8E08E9F700128
:104BF0001124F22A669566956695E62A7CC0687F40
:104C0000F8E08F9F70011124F62A269526952695A7
:104C1000E22A71C0D09000018CB192B3BCB1A091D6
:104C20000001889A889A889888988898309100011D
:104C30002CB102B36CB1C09000013076E32EF12CA0
:104C400015E0F594E7941A95E1F7207330E0359577
:104C5000279535952795E22AF32A007210E01595DD
:104C60000795E02AF12A687070E0660F771F660FDB
:104C7000771F9701262B372B6C2D687178E0679F83
:104C800070011124E22AF32A889A2D2D2076322FE2
:104C9000329536953770807386958695282F232B0D
:104CA0009072892F90E095958795822BB870BB0FF5
:104CB000BB0F8B2B2A2F287198E0299F900111247C
:104CC000822BF82A43FF03C0FE24EF24FE24EF2B9F
:104CD00091F09701207E3770C701892F992786951B
:104CE00086958695822B932BFE2CEE24FF0CFF0CD1
:104CF000FF0CE82AF92A8091DC02882399F09701B9
:104D0000207CC7018827947055E0969587955A9521
:104D1000E1F7AFE3EA22FF24F694E794E82AF92AC0
:104D2000E22AF32A889A8B9A8091010188678093FE
:104D300001019D9A8DB188638DB940FD14C0009129
:104D40004B0510914C0501501109209149053091F6
:104D50004A052150310940E050E060E070E081E414
:104D600095E00E946F10BFE1EB16BFEFFB06B1F4B8
:104D700086E08983AE014F5F5F4F61E08AE390E098
:104D80000E94DE0B80915D0590915E058F7E909371
:104D90005E0580935D0581E08093DC0261E081E443
:104DA00095E00E943F1460E070E081E495E00E948D
:104DB000861F0E94D1178C01E0912C05F0912D05E2
:104DC0008FEF9FEF918B808B138A128A82E890E09D
:104DD000958784878CE890E09787868783E0848B2B
:104DE00061E472E0CF010E94CF17E0912C05F091B1
:104DF0002D0582E0848B84E190E09587848784EBA5
:104E000090E09787868761E572E0CF010E94CF1717
:104E10000130110521F40E94D1178C01F9CF0E94B5
:104E20000B1F8CE8282E312CCC24CA94DC2C24EBCC
:104E3000422E512C8EE30E94501D8C018FE30E9464
:104E4000501D7C0168EC70E080E090E00E946F1DD6
:104E500060913005709131056115710549F04091FF
:104E600034055091350587E395E00E94211004C078
:104E700087E395E00E940F10E0ECEE16E1E0FE06FD
:104E80001CF467E772E007C0F1E4EF16F2E0FF06FA
:104E900034F06AE772E080E395E00E945810013434
:104EA00022E012071CF06DE772E005C0003C1140E3
:104EB00034F460E872E080E395E00E94581020919D
:104EC0003B0530913C0580913405909135052817BC
:104ED000390729F5809137059091380560913005A3
:104EE00070913105009719F061157105A1F46115F4
:104EF000710549F0232B31F1DB018C9190E0919504
:104F0000819591090AC00097E9F0232BD9F0FC01A3
:104F1000808190E002C00E94122E892B99F081E0DE
:104F200080933E058091200590912105909329055D
:104F300080932805809122059091230590932B055D
:104F400080932A0500E010E08091340590913505AA
:104F50000817190798F48091300590913105009752
:104F600029F0FC01E00FF11F608101C060E08EEFCD
:104F700094E00E942D0A0F5F1F4FE6CF6DE08EEF89
:104F800094E00E942D0A6AE08EEF94E00E942D0AC0
:104F90008EEF94E00E94B60A97FDFACF00E010E091
:104FA000F12C8EEF94E00E94B60A1816190624F030
:104FB000FAE0FF12F6CF0FC08EEF94E00E947A0A5B
:104FC000F82EE0913F05F0914005E00FF11F80833E
:104FD0000F5F1F4FE6CFE0913F05F0914005E00FD6
:104FE000F11F319780E280836AE872E0CE010F966C
:104FF0000E943A1D60913F0570914005CE010196D7
:105000000E943A1DBE016F5F7F4FCE010F960E9436
:10501000551A89819A810E949B2C6AE872E0CE0120
:1050200008960E943A1DE0913F05F09140052081CD
:105030002E8B822F8654823008F016C100E2602E3B
:1050400005E0702E02E010E04801E0913F05F0918C
:105050004005E00FF11F780181910F5F1F4F8032F3
:10506000D1F7E814F90428F4982D892D4701E92E89
:10507000F82E6AE872E0CE0101960E943A1DAB88D4
:10508000BC88A814B904C0F0EA14FB0408F4570162
:10509000EF85F889EA0DFB1DF08010826F85788915
:1050A000680D791DCE0101960E9458108F85988950
:1050B000FC01EA0DFB1DF082BE016F5F7F4FCE0148
:1050C00008960E94551A89819A810E949B2C888596
:1050D0009985009719F00E94AE2B03C060E070E044
:1050E000CB01D3016D937D933D01E8E2F5E0EA1732
:1050F000FB0709F0A9CF80912C0590912D05809098
:10510000240590902505A0902605B0902705409194
:105110002205509123056091200570912105FE899B
:10512000DC01F73479F5ED91FC91048CF58DE02DDF
:1051300010EEE12E17E0F12E04E110E024E130E062
:10514000199580912C0590912D05DC01ED91FC9134
:10515000048CF58DE02DE12CF12C24E130E0A5014B
:10516000B401199580913E05882309F4D2C180913C
:105170002E0590912F05181619060CF0CAC10E9431
:10518000DF1DC7C1ED91FC91048CF58DE02DA0EEE3
:10519000EA2EA7E0FA2E04E110E024E130E01995B0
:1051A00080912C0590912D05DC01ED91FC91048CF2
:1051B000F58DE02DE12CB8EFFB2E24E130E0A501C8
:1051C000B401199580913E05882349F080912E0500
:1051D00090912F051816190614F40E94DF1D809176
:1051E0002E0590912F05019690932F0580932E0503
:1051F00080912C0590912D05DC01ED91FC91048CA2
:10520000F58DE02DEE24EA94FE2C0AE010E02CE36C
:1052100030E04AE050E06EEA71E0199580912C058B
:1052200090912D0520E931E0FC01358724872AE0A3
:1052300030E03787268763E872E00E94CF174091FD
:105240002E0550912F0580912C0590912D05052E4E
:10525000000C660B770B77FF03C00E942C1A59C114
:105260002AE00E94D61955C167E772E080E395E015
:105270000E94581060912E0580E090E00E94F52B6E
:1052800010922F0510922E0580912C0590912D05DE
:10529000DC01ED91FC91068CF78DE02D60E070E073
:1052A0001995E0912C05F0912D0584E0848B3586CD
:1052B000248637862686D18AC08A138A128A6BE8AA
:1052C00072E0CF010E94CF1760ED77E080E090E0C0
:1052D0000E946F1D80912C0590912D05DC01ED91B0
:1052E000FC91068CF78DE02D60E070E019958091BF
:1052F0002C0590912D05DC01ED91FC91048CF58D30
:10530000E02DEE24EA94FE2C04E110E020EE31E0E2
:1053100040E050E060E070E01995E0912C05F091DC
:105320002D05558644868AE090E09787868781E040
:10533000848B80E098EF918B808BD38AC28A66E958
:1053400072E0CF010E94CF17E0912C05F0912D055E
:1053500082E0848B158614868EE190E0978786879D
:10536000168A80E090E00E94ED2B982EEE24E394C4
:10537000F12C870188248394101611060CF0812CDF
:1053800001501109C8010E94ED2B782E5801BFEF82
:10539000AB1ABB0AC5010E94ED2B91E0871508F0FE
:1053A00090E0892281F0C5010E94ED2B882EC80172
:1053B0000E94ED2B682FC5010E94F52B682DC801B6
:1053C0000E94F52BD7CFEFEFEE1AFE0AFBE0EF16A7
:1053D000F10479F6A12CB12C00E010E0C8010E9484
:1053E000ED2B981204C00115110509F058010F5F4B
:1053F0001F4F0B30110591F7612C712C4301639401
:105400004EE1E42EF12C0AE010E0E0912C05F09141
:105410002D05A016B10629F0D18AC08A138A128AF6
:1054200004C0118A108AD38AC28A64E670E0758744
:105430006487F786E6862AE0B401A301CF010E94C3
:10544000D61968E872E080912C0590912D050E9494
:10545000CF17C8010E94ED2B482F50E060E070E0AC
:105460002AE080912C0590912D050E94D6190150BB
:1054700011097EE1E70EF11C8FEF681A780A880A9D
:10548000980A0115110509F6E0912C05F0912D05FA
:1054900088EC90E09587848786E990E097878687F7
:1054A000D38AC28AD18AC08A61EA72E0CF010E949F
:1054B000CF1780912C0590912D05DC011D965C92F3
:1054C0004E921C972AEA30E01F963C932E931E972B
:1054D00064EB72E00E94CF1780912C0590912D050E
:1054E000DC01ED91FC9102A0F3A1E02D20EEE22E73
:1054F00027E0F22E02E310E026EE30E041E950E032
:1055000063EC70E019950E94D1170197E1F30E94B6
:105510000B1F888599850E949B2C8F8598890E94F6
:105520009B2C88CCCF92DF92EF92FF92CF93EEEF3D
:10553000F4E01382128288EEC82E83E0D82EE12C8C
:10554000F12CC482D582E682F7824DE052E051838D
:1055500040838AEB94E09587848786E794E0978779
:10556000868785EC90E0918B808B84EC90E0938B28
:10557000828B80EC90E0958B848B81EC90E0978B14
:10558000868B82EC90E0918F808F86EC90E0938FF9
:10559000828F34E0348F23E0258F97E0968F85E06B
:1055A000878FC1E0C0A3EAEBF5E013821282C482C8
:1055B000D582E682F7825183408362E374E0758787
:1055C00064876EEE73E0778766876DEC70E0718BB1
:1055D000608B6CEC70E0738B628B68EC70E0758BA9
:1055E000648B69EC70E0778B668B6AEC70E0718F8E
:1055F000608F6EEC70E0738F628F348F258F968F83
:10560000878FC0A3E8E9F5E013821282C482D582B5
:10561000E682F782518340836AEA73E07587648784
:1056200066E673E07787668765ED70E0718B608B67
:1056300064ED70E0738B628B60ED70E0758B648B52
:1056400061ED70E0778B668B62ED70E0718F608F3B
:1056500066ED70E0738F628F348F258F968F878F02
:10566000C0A3E6E7F5E013821282C482D582E68207
:10567000F7825183408342E253E0558744874EEDE1
:1056800052E05787468745E351E0518B408B44E316
:1056900051E0538B428B40E351E0558B448B41E307
:1056A00051E0578B468B42E351E0518F408F46E3E8
:1056B00051E0538F428F348F258F968F878FC0A3F1
:1056C00067E772E080E395E00E943A1D67E772E0C9
:1056D00087E395E00E943A1D10923E0580E091E03C
:1056E0000E94032C9093400580933F05E1E4F5E090
:1056F0001382128220EF30E03583248380E491E02E
:10570000978386833187208793878287158A1586BA
:10571000148617861686C48B8FEF9FEF938B828B30
:10572000918B808BC68B178A118E108E8DE192E043
:1057300091838083CF91FF90EF90DF90CF90089579
:10574000CF93DF93C0E2D5E08F89988D0E949B2C88
:1057500088899989DF91CF910C949B2C1F93FC0130
:1057600099278827BC01E89411911032E9F3193088
:1057700010F01E30C8F31B3251F01D3249F468940A
:1057800006C00E94D82B610F711D811D911D1191C2
:1057900010531A30B0F33EF4909580957095619552
:1057A0007F4F8F4F9F4F1F910895F8940C944C2E6C
:1057B000592F482F372F262F660F771F881F991FC5
:1057C000660F771F881F991F620F731F841F951F15
:1057D000660F771F881F991F0895F999FECF92BD14
:1057E00081BDF89A992780B50895262FF999FECFA3
:1057F0001FBA92BD81BD20BD0FB6F894FA9AF99AEE
:105800000FBE019608950F931F93CF93DF938230BD
:10581000910510F482E090E0E091E705F091E80551
:1058200020E030E0A0E0B0E0309719F140815181F4
:105830000281138148175907C8F08417950769F446
:10584000109731F012960C93129713961C9327C061
:105850000093E7051093E80522C02115310519F0E2
:105860004217530718F49A01BD01EF01DF01F80157
:10587000DBCF21153105F9F0281B390B2430310518
:1058800080F48A819B816115710521F0FB0193836E
:10589000828304C09093E8058093E705FE01329669
:1058A00044C0FE01E20FF31F81939193225031090E
:1058B000398328833AC02091E5053091E605232BF2
:1058C00041F420910202309103023093E6052093C7
:1058D000E50520910002309101022115310541F4C6
:1058E0002DB73EB74091040250910502241B350BA1
:1058F000E091E505F091E605E217F307A0F42E1B11
:105900003F0B2817390778F0AC014E5F5F4F241723
:10591000350748F04E0F5F1F5093E6054093E505AD
:105920008193919302C0E0E0F0E0CF01DF91CF914D
:105930001F910F910895CF93DF93009709F481C0D1
:10594000FC01329713821282A091E705B091E8051D
:10595000109781F420813181820F931F2091E505FA
:105960003091E6052817390751F5F093E605E093E5
:10597000E50567C0ED0120E030E0CE17DF0740F419
:105980004A815B819E0141155105F1F0EA01F5CF95
:10599000D383C28340815181840F951FC817D907D3
:1059A00059F488819981840F951F02969183808391
:1059B0008A819B81938382832115310529F4F09399
:1059C000E805E093E7053DC0E901FB83EA834991DF
:1059D0005991C40FD51FEC17FD0761F480819181A7
:1059E000840F951F0296E9019983888382819381B0
:1059F0009B838A83E0E0F0E012968D919C9113974F
:105A0000009719F0FD01DC01F7CF8D919C91119762
:105A10009D012E5F3F4F820F931F2091E50530912E
:105A2000E6052817390769F4309729F41092E8053C
:105A30001092E70502C013821282B093E605A0938C
:105A4000E505DF91CF9108956F927F928F929F929B
:105A5000AF92BF92CF92DF92EF92FF920F931F937C
:105A6000CF93DF93009789F4CB01DF91CF911F9102
:105A70000F91FF90EF90DF90CF90BF90AF909F90ED
:105A80008F907F906F900C94032CFC01E60FF71F12
:105A90009C0122503109E217F30708F4A9C0EC0178
:105AA000D9010D911C91119706171707B0F0053019
:105AB000110508F49BC0C80104978617970708F4DE
:105AC00095C002501109061B170B019311936D939A
:105AD0007C93CF010E949B2C89C05B01A01AB10A64
